:100000000C943B000C9458000C9458000C9458002D
:100010000C94DD050C9458000C9458000C94580076
:100020000C9458000C9458000C9458000C945800F0
:100030000C9458000C9458000C9458000C945800E0
:100040000C9458000C9458000C9458000C945800D0
:100050000C9458000C9458000C9458000C945800C0
:100060000C946C000C94580008015C01650174014B
:10007000870115016E0111241FBECFEFD8E0DEBF4E
:10008000CDBF11E0A0E0B1E0EAE3FCE002C00590E2
:100090000D92A430B107D9F721E0A4E0B1E001C08E
:1000A0001D92A031B207E1F70E9487050C941B0650
:1000B0000C94000090930701809306017093050152
:1000C000609304010895F894880F8093BA0085EC3A
:1000D0008093BC00789408951F920F920FB60F92F0
:1000E00011242F933F934F935F936F937F938F933D
:1000F0009F93AF93BF93EF93FF938091B900887F55
:10010000803859F028F4811115C01092BC0012C03B
:10011000883A59F0883B49F00DC08091BB00E091CE
:100120000601F0910701099505C0E0910401F091E5
:100130000501099585EC8093BC00FF91EF91BF917B
:10014000AF919F918F917F916F915F914F913F916F
:100150002F910F900FBE0F901F90189580910E0158
:100160008093BB0008955B9828E030E02D98AC01A7
:10017000022E02C0569547950A94E2F740FF02C04E
:100180002B9A01C02B9843E04A95F1F700002D9A75
:1001900043E04A95F1F700002150310938F72D98D6
:1001A0002B9A83E08A95F1F700002D9A23E02A9597
:1001B000F1F700008FE090E02D989B01082E02C01F
:1001C000369527950A94E2F720FF02C02B9A01C0CA
:1001D0002B9843E04A95F1F700002D9A23E02A95E9
:1001E000F1F70000019740F72D9883E08A95F1F729
:1001F00000005B9A0895E0910D014E2F50E04730CA
:10020000510508F092C0FA01EC5CFF4F0C94150602
:10021000813F39F0823F29F0803F09F086C080E4B9
:1002200001C080E180930E01089590910F019130FB
:1002300051F028F0923099F09330F1F0089590E069
:10024000982F882707C020910A0130910B01A9013E
:10025000482BCA0190930B0180930A0107C090E0DC
:10026000982F8827909309018093080180910F01AE
:100270008F5F80930F01089520910801309109014B
:10028000A901482BCA01909309018093080160914C
:1002900008017091090180910A0190910B010E945F
:1002A000B30010920D0110920B0110920A011092EE
:1002B0000901109208013BC087BD809301018F3F67
:1002C00011F428982FC0289A2DC088BD8093000172
:1002D0008F3F11F45D9826C05D9A24C0811102C041
:1002E0002F9820C02F9A1EC0823039F0833041F001
:1002F0008130C1F461EE70E005C064EE70E002C0D0
:1003000064E270E08CEC90E00E94B3000BC081309E
:1003100039F018F0823021F005C010920C0102C0B3
:1003200080930C0110920D01089580930D0110929D
:100330000F01089560E070E082E090E00E94B30059
:1003400063E171E281E190E00E94B30060E070E05F
:1003500084E190E00E94B30060E872E28AE190E0FC
:100360000E94B3006DE27DE38BE190E00E94B30058
:100370006CE170E780E290E00E94B30060E070E022
:1003800088E090E00E94B30067E070E080E190E0D8
:100390000C94B30060E070E089E090E00E94B3004C
:1003A0006EE070E780E290E00E94B30061E070E0F0
:1003B00082E290E00C94B30060E070E082E090E0B4
:1003C0000E94B30060E070E088E090E00E94B3001B
:1003D00060E070E089E090E00E94B30060E070E0CF
:1003E0008AE090E00E94B30060E070E084E190E079
:1003F0000E94B30060E872E28AE190E00E94B300DC
:100400006DE27DE38BE190E00E94B3006FE070E766
:1004100080E290E00E94B30061E070E082E290E050
:100420000E94B30067E070E088E290E00E94B300B1
:100430006FE578E089E290E00E94B30063E071E448
:100440008AE290E00E94B30068E175E08BE290E000
:100450000E94B30061E070E080E390E00E94B3008E
:1004600061E070E080E490E00E94B3006AE278E32B
:1004700081E490E00E94B30068EC73E582E490E0D0
:100480000E94B30065E676E083E490E00E94B3004A
:1004900065E870E084E490E00E94B30068E878E0EA
:1004A00085E490E00E94B30060E078E486E490E0A8
:1004B0000E94B30068E878E887E490E00E94B30007
:1004C00067E171E088E490E00E94B30060E070E0D2
:1004D00080E790E00E94B3006AE077E480E890E073
:1004E0000E94B30061E070E881E890E00E94B300F0
:1004F00065E170E082E890E00E94B30061E078E09E
:1005000080EC90E00E94B30064EE70E082EC90E03A
:100510000E94B30064E071E085EC90E00E94B300BB
:1005200067EA70E087EC90E00E94B30064EE7CE044
:1005300088EC90E00E94B30064EE7CE089EC90E0EF
:100540000E94B30064EE70E08CEC90E00E94B30077
:1005500064E170E08FEC90E00E94B30060E071E035
:1005600086ED90E00E94B3006FE170E187ED90E0CE
:100570000E94B30060E070E088ED90E00E94B3005C
:1005800063E270E08BED90E00E94B3006BE27CE3ED
:100590008CED90E00E94B3006DE47BE28DED90E085
:1005A0000E94B3006EE57EE380EE90E00E94B3000F
:1005B00069E470E083ED90E00E94B30060E070E0D9
:1005C00088ED90E00E94B30063E270E08BED90E074
:1005D0000E94B3006BE27CE38CED90E00E94B300DC
:1005E0006DE47BE28DED90E00E94B30069E972E07A
:1005F00086EE90E00E94B30060E573E087EE90E045
:100600000E94B30064EF71E088EE90E00E94B300B6
:1006100061EE70E08BEE90E00E94B30069E170EB58
:1006200080E091E00E94B30069E170EB82E091E02C
:100630000E94B30060E078EC80E891E00E94B30093
:100640006FE17BEF81E891E00E94B3006FE17BEF07
:1006500082E891E00E94B30062E17BEF83E891E0E1
:100660000E94B30062E179EF84E891E00E94B30058
:1006700063E079EF85E891E00E94B30062E078EFF3
:1006800086E891E00E94B3006FE073EF87E891E0A5
:100690000E94B3006FE073EF88E891E00E94B3001E
:1006A0006FE073EF89E891E00E94B3006AE073EFB6
:1006B0008AE891E00E94B30061E071EF8BE891E07D
:1006C0000E94B3006AE070EF8CE891E00E94B300F2
:1006D0006BE472EF8DE891E00E94B30061E072EF8D
:1006E0008EE891E00E94B30066E272EF8FE891E03D
:1006F0000E94B30061E270EF80E991E00E94B300D4
:1007000061E070EF81E991E00E94B30062E074EF74
:1007100082E991E00E94B30067E070EF83E991E025
:100720000E94B3006FE072EF84E991E00E94B30091
:100730006FE072EF85E991E00E94B30062E072EF32
:1007400086E991E00E94B30066E070EF87E991E0EE
:100750000E94B30068E07CEE88E991E00E94B3005B
:1007600061E078EC89E991E00E94B30060E078EC08
:100770008AE991E00E94B30060E078EC83EA91E0BE
:100780000E94B30062E07CEC84EA91E00E94B30036
:1007900061E07CEC85EA91E00E94B30062E07CECD1
:1007A00086EA91E00E94B30061E07CEC87EA91E088
:1007B0000E94B30062E07CEC88EA91E00E94B30002
:1007C00065E078EC89EA91E00E94B30060E078ECA3
:1007D0008AEA91E00E94B30060E370E08BEA91E066
:1007E0000E94B3006BE770E28CEA91E00E94B300D4
:1007F00061E770E28DEA91E00E94B30061E770E08A
:100800008EEA91E00E94B3006FE770E18FEA91E019
:100810000E94B30062E770E180EB91E00E94B300B8
:1008200064E770E181EB91E00E94B30061E770E062
:1008300082EB91E00E94B30061E370E083EB91E012
:100840000E94B3006BEB71E284EB91E00E94B30075
:1008500061EB70E285EB91E00E94B30061EB70E028
:1008600086EB91E00E94B3006FEB70E187EB91E0C3
:100870000E94B30062EB70E188EB91E00E94B3004C
:1008800064EB70E189EB91E00E94B30061EB70E0F2
:100890008AEB91E00E94B30060E370E08BEB91E0A3
:1008A0000E94B30060E370E08CEB91E00E94B30023
:1008B0006BE771E28DEB91E00E94B30061E770E2BB
:1008C0008EEB91E00E94B30061E770E08FEB91E066
:1008D0000E94B3006FE770E180EC91E00E94B300EA
:1008E00062E770E181EC91E00E94B30064E770E19F
:1008F00082EC91E00E94B30061E770E083EC91E04C
:100900000E94B30061E370E084EC91E00E94B300C8
:100910006BEB71E285EC91E00E94B30061EB70E259
:1009200086EC91E00E94B30061EB70E087EC91E00F
:100930000E94B3006FEB70E188EC91E00E94B3007D
:1009400062EB70E189EC91E00E94B30064EB70E12E
:100950008AEC91E00E94B30061EB70E08BEC91E0D7
:100960000E94B30060E370E08CEC91E00E94B30061
:1009700060E370E08DEC91E00E94B3006BE771E200
:100980008EEC91E00E94B30061E770E28FEC91E0A1
:100990000E94B30061E770E080ED91E00E94B30037
:1009A00061E770E181ED91E00E94B30061E770E0E2
:1009B00082ED91E00E94B30061E370E083ED91E08D
:1009C0000E94B3006BEB71E284ED91E00E94B300F2
:1009D00061EB70E285ED91E00E94B30061EB70E0A5
:1009E00086ED91E00E94B30063EB70E187ED91E04A
:1009F0000E94B30061EB70E188ED91E00E94B300CA
:100A000061EB70E089ED91E00E94B3006FE370E06C
:100A10008AED91E00E94B30062E370E08BED91E01B
:100A20000E94B30060E370E08CED91E00C94B300A1
:100A300060E070E08AE090E00E94B3006FE070E751
:100A400080E290E00E94B30067E070E088E290E00E
:100A50000E94B30063E171E48AE290E00E94B30077
:100A600061E070E080E390E00E94B30061E070E03C
:100A700080E490E00E94B30067E271E088E490E0D7
:100A80000E94B30060E070E080E790E00C94B30057
:100A90006EEA70E08BEF90E00E945A0080E10C94C7
:100AA000630080FD289A81FD5D9A089580FD289855
:100AB00081FD5D9808950E949A0183EC99E0019769
:100AC000F1F700C000000E94CA010E94DC010C94F2
:100AD000180584B1886284B9539A24985B9A2D983A
:100AE000279A2F98209A85B185B9559A8BB18BB9E1
:100AF0003B9A439839980895E8E6F0E08081826057
:100B00008083ECE6F0E0808182608083089510921B
:100B10000C010E9469050E9448050E947C0578949A
:100B2000439A89EF90E00197F1F700C000000E941E
:100B30005B0581E00E94510583E00E9456052F9AD3
:100B400080910C018130E1F70E9451059FE926E870
:100B500081E0915020408040E1F700C0000081E03A
:100B60000E94560582E00E9451059FE926E881E037
:100B7000915020408040E1F700C0000082E00E94D8
:100B8000560583EC99E00197F1F700C0000083E07F
:100B90000E9451059FE926E881E091502040804065
:100BA000E1F700C0000083E00E94560583E294EF65
:100BB0000197F1F700C00000C3CF1F920F920FB64C
:100BC0000F9211248F9380910C01813041F1319B60
:100BD00024C080910C01823089F48091020181301F
:100BE00031F48091000181112D9A82E005C080913D
:100BF00001018111289A81E08093020180910C010A
:100C000081110DC0809101018F3F09F0289A8091D8
:100C100000018F3F21F05D9A02C028985D988F9166
:100C20000F900FBE0F901F901895EE0FFF1F0590AD
:0A0C3000F491E02D0994F894FFCF31
:040C3A00FFFF0100B7
:00000001FF
